{
  "contractName": "Todos",
  "abi": [
    {
      "constant": false,
      "inputs": [
        {
          "name": "todo",
          "type": "bytes32"
        }
      ],
      "name": "addTodo",
      "outputs": [],
      "payable": false,
      "stateMutability": "nonpayable",
      "type": "function",
      "signature": "0xda2f6460"
    },
    {
      "constant": true,
      "inputs": [],
      "name": "getTodos",
      "outputs": [
        {
          "name": "",
          "type": "bytes32[]"
        }
      ],
      "payable": false,
      "stateMutability": "view",
      "type": "function",
      "signature": "0xc33926cb"
    }
  ],
  "bytecode": "0x608060405234801561001057600080fd5b506101ab806100206000396000f3fe60806040526004361061004c576000357c0100000000000000000000000000000000000000000000000000000000900463ffffffff168063c33926cb14610051578063da2f6460146100bd575b600080fd5b34801561005d57600080fd5b506100666100f8565b6040518080602001828103825283818151815260200191508051906020019060200280838360005b838110156100a957808201518184015260208101905061008e565b505050509050019250505060405180910390f35b3480156100c957600080fd5b506100f6600480360360208110156100e057600080fd5b8101908080359060200190929190505050610150565b005b6060600080548060200260200160405190810160405280929190818152602001828054801561014657602002820191906000526020600020905b815481526020019060010190808311610132575b5050505050905090565b60008190806001815401808255809150509060018203906000526020600020016000909192909190915055505056fea165627a7a723058207521818e822aaff53331464667a1b900c0bdd6b5461498b58035f041347b0c730029",
  "source": "//pragma solidity ^0.4.2;\npragma solidity ^0.5.0;\n\n\ncontract Todos {\n    bytes32[] todos;\n\n\n    function addTodo(bytes32 todo) public {\n        todos.push(todo);\n    }\n\n    function getTodos() view public returns (bytes32[] memory) {\n        return todos;\n    }\n\n    // function getTodos() constant public returns (bytes32[]) {\n    //     return todos;\n    // }\n}",
  "sourcePath": "/Users/unomasanori/projects/DEMO_MVP/dao-message-board/contracts/Todos.sol",
  "compiler": {
    "name": "solc",
    "version": "0.5.0+commit.1d4f565a.Emscripten.clang"
  },
  "schemaVersion": "3.0.1",
  "updatedAt": "2019-03-09T12:39:16.031Z",
  "devdoc": {
    "methods": {}
  },
  "userdoc": {
    "methods": {}
  }
}